:0400000010EF00F00D
:100020000F01560ED36FD26B8A6B936B5C6B928011
:100030005B9192825B930001036B80B003D0010E51
:1000400027EF00F080B2F9D7010E30EF00F080A06A
:10005000FED7032703C08AFF320E0362EED70DD00E
:1000600080A2FED7000E036201D007D0010E035F0D
:1000700003C08AFF000E0362E0D7006E320E016EED
:10008000C80E026E00000000022E42EF00F0012EAA
:0C00900040EF00F0002E3EEF00F01200E8
:020000040030CA
:040000000009583C5F
:02000500D181A7
:060008000FC00FE00F40E5
:00000001FF
