:0400000082EF06F095
:100800000025640A00000C50D96EDA6ADFCFF6FFCB
:100810000800F550250AD8A410EF04F012EF04F0F8
:10082000C7EF04F00C50D96EDA6ADF2A000E4E6E64
:10083000000E4D6E4DC051F04F6850680C50D96E8F
:10084000DA6ADF50106E10C0F6FF0800F550640A37
:10085000D8B42DEF04F02FEF04F03BEF04F010C0FC
:10086000F6FF0800F550690AD8A439EF04F03BEF11
:1008700004F0C1EF04F00D50D96EDA6A020EDF26E3
:10088000DF5CD96EDA6ADECF11F0DECF12F00C50E9
:10089000D96EDA6A1028DF6E200E156E12BE53EF85
:1008A00004F056EF04F0010E57EF04F0000E0F6E47
:1008B000150615502D0FD96EDA6A11C001F012C05D
:1008C00002F0000E046E0A0E036E39EC05F001C052
:1008D00007F002C008F068EC06F00750300FDF6E3A
:1008E00011C001F012C002F0000E046E0A0E036E79
:1008F000D7EC04F001C011F002C012F01150121038
:10090000D8B485EF04F087EF04F08FEF04F01550B2
:10091000D8A48DEF04F08FEF04F058EF04F01550D9
:10092000D8B495EF04F097EF04F0B6EF04F00F5051
:10093000D8B49DEF04F09FEF04F0B6EF04F0150675
:1009400015502D0FD96EDA6A2D0EDF6EB6EF04F05A
:1009500015502D0FD96EDA6ADF500E6E0E50016EF3
:10096000026A0BC003F091EC05F0152A200E151851
:10097000D8A4BDEF04F0BFEF04F0A8EF04F0D6EF69
:1009800004F00C50D96EDA6ADF2AD6EF04F00C506E
:10099000D96EDA6ADFCFF6FF0800F550016E026A01
:1009A0000BC003F091EC05F0C1EF04F01200000E53
:1009B000066E04BEE0EF04F0DEEF04F0E6EF04F0B4
:1009C000036C041ED8B0042A010E066E02BEEDEFC1
:1009D00004F0EBEF04F0F3EF04F0016C021ED8B06A
:1009E000022A010E061A000E086E000E076E035052
:1009F0000410D8B4FEEF04F000EF05F028EF05F086
:100A0000010E056E08EF05F0D89003360436052A6E
:100A100004AE0DEF05F00FEF05F004EF05F0D890F0
:100A2000073608360350015C04500258D8A01BEF6B
:100A300005F01DEF05F022EF05F00350015E0450B4
:100A4000025A0780D89004320332052E0FEF05F0CA
:100A50000650D8B42EEF05F030EF05F034EF05F076
:100A6000076C081ED8B0082A07C001F008C002F0C1
:100A70001200000E066E02BE42EF05F040EF05F0D8
:100A800048EF05F0016C021ED8B0022A010E066E76
:100A900004BE4FEF05F04DEF05F053EF05F0036C8A
:100AA000041ED8B0042A03500410D8B45AEF05F03D
:100AB0005CEF05F080EF05F0010E056E64EF05F0C8
:100AC000D89003360436052A04AE69EF05F06BEFC3
:100AD00005F060EF05F00350015C04500258D8A007
:100AE00074EF05F076EF05F07AEF05F00350015E44
:100AF0000450025AD89004320332052E6BEF05F0F1
:100B00000650D8B486EF05F088EF05F08CEF05F0BD
:100B1000016C021ED8B0022A01C001F002C002F02E
:100B200012000350D8B497EF05F099EF05F0A1EF4C
:100B300005F00350D8A49FEF05F0A1EF05F0A6EF54
:100B400005F00150BCEC06F0E5EF05F00350D96E5E
:100B5000DA6A0A0ED926DE50DE10D8B4B2EF05F0FC
:100B6000B4EF05F0CDEF05F00350D96EDA6A0A0E46
:100B7000D9260350E16EE26A030EE126DE50E65C00
:100B8000E650800A086EDE50800A0858D8B0CBEFD5
:100B900005F0CDEF05F0E5EF05F00350D96EDA6A08
:100BA000030ED926DF50046E0350D96EDA6ADF5087
:100BB0000424D96EDA6A01C0DFFF0350D96EDA6A05
:100BC000030ED926DE2A000EDD221200520ED36E4D
:100BD000000ED26EA6EC06F095EC06F0B2EC06F034
:100BE000C282C2B2F6EF05F0F8EF05F0F1EF05F0C2
:100BF000C3CF83FF600E1A6E010E1B6EC3CF1CF0B5
:100C00001D6A4EEC06F0600E016E33EC06F0060E27
:100C10002C6E130E2B6EAE0EE82EFED72B2EFCD7AD
:100C20002C2EFAD7F0EF05F000EF00F017C019F006
:100C300022EF06F016C00BF0190E0C6E18C00DF066
:100C400003EC04F019C0F6FF0800F5500009D8A421
:100C50002CEF06F02EEF06F01AEF06F0000E176EDE
:100C6000000E166E120042EF06F0ACA23AEF06F04C
:100C70003CEF06F035EF06F00150D96EDA6ADF502E
:100C8000AD6E012A0150D96EDA6ADF50D8A44BEF5D
:100C900006F04DEF06F035EF06F012001C0E1E6E4A
:100CA0001AC01FF0000E236E000E226E000E2A6E78
:100CB000000E296E1F0E166E1BC017F01E0E186E4A
:100CC00016EC06F01A502224D96EDA6ADF6A120096
:100CD00008BE6DEF06F06FEF06F075EF06F007C087
:100CE00007F008C008F081EF06F007C009F008C05F
:100CF0000AF0091E0A1E094A0A2A09C007F00AC09A
:100D000008F0120000EE60F0280EEE6AE806FDE141
:100D100000EE2DF0250EEE6AE806FDE1000EF86EFD
:100D2000080EF76E0001E6EF05F0F30EC116C05095
:100D3000F80B0509C06EC250830B0409C26EC08E49
:100D4000C050C70B1809C06EC2801200000E956E0D
:100D5000000E0F015E6F92685B69949C948E000E8A
:100D60005D6F1200AB8EAC9CAC8AAC98AB9CAB8830
:0A0D7000AC84190EAF6E12001200E1
:020000040030CA
:0E0000000009583CFFD181FF0FC00FE00F40F8
:00000001FF
