:0400000010EF00F00D
:100020000F01560ED36FD26B92695B6B8A6B936B29
:100030005C6B8C6B956B5E6B0001036B81908192A6
:1000400022EF00F080A627EF00F036EF00F080A44A
:100050002CEF00F03BEF00F080A231EF00F040EF1A
:1000600000F080A05FEF00F059EF00F080A44DEFAA
:1000700000F03BEF00F080A24DEF00F040EF00F009
:1000800080A04DEF00F045EF00F080A459EF00F0A4
:1000900080A655EF00F05FEF00F0818081928390A1
:1000A00083928394839622EF00F0838083921EEFE5
:1000B00000F083808392838483961EEF00F0839008
:1000C0008392839483961EEF00F0006E320E016ED1
:1000D000C80E026E00000000022E6AEF00F0012E32
:0C00E00068EF00F0002E66EF00F0120048
:020000040030CA
:040000000009583C5F
:02000500D181A7
:060008000FC00FE00F40E5
:00000001FF
