:0400000023EF02F0F8
:100008005F82E9CFAFF0EACFB0F0E1CFB1F0E2CF55
:10001800B2F0D9CFB3F0DACFB4F0F3CFB5F0F4CF74
:10002800B6F0F6CFB7F0F7CFB8F0F8CFB9F0F5CF14
:10003800BAF0F2A422EF00F024EF00F009EF02F08A
:10004800000E0001DB6F030EDB652DEF00F02FEFD4
:1000580000F031EF00F076EF00F0DB51ED0FD96ED4
:10006800DA6ADF50816E81B83CEF00F03EEF00F0B5
:1000780046EF00F0DB51040DF350DD0FD96EDA6A5C
:10008800DF50DC6F81BA4BEF00F04DEF00F055EF19
:1000980000F0DB51040DF350DE0FD96EDA6ADF5041
:1000A800DC6F81BC5AEF00F05CEF00F064EF00F009
:1000B800DB51040DF350DF0FD96EDA6ADF50DC6FC5
:1000C80081BE69EF00F06BEF00F073EF00F0DB51D9
:1000D800040DF350E00FD96EDA6ADF50DC6FDB2BCA
:1000E80027EF00F0000E8A6E090EDC657EEF00F047
:1000F80080EF00F0D6EF00F00F0EDC19D8B487EFD0
:1001080000F089EF00F0D6EF00F0F829D8A48FEFBF
:1001180000F091EF00F0D6EF00F0D54BD62B000E93
:10012800CE6F010ECD6FF969F5EC15F0040E036E74
:10013800020E77EC15F0750E036E0350D8A4080E66
:10014800046E92EC16F0000E0001DC6F0B0E00013D
:10015800AE6F260EAD6F5D0EE82EFED7AD2FFCD725
:10016800AE2FFAD700D0000E0001CE6F000ECD6F73
:10017800000ECC6F000ECB6F69EC18F0000E036E0A
:10018800000E77EC15F0610E036E0350D8A4080E2C
:10019800046E92EC16F0000E0001F86F000EDC6F92
:1001A80004EF02F00F0EDC19D8A4DDEF00F0DFEF4A
:1001B80000F0F8EF00F069EC18F08C96000E0001E2
:1001C800D66F000ED56F000ED46F000ED36F000EE1
:1001D800DC6F000EF96FF869F769F669000EF26FC7
:1001E800010EF16F04EF02F0D6BF03EF01F0D65114
:1001F80008E1D505D8A003EF01F005EF01F047EFBE
:1002080001F0D351D411D8A40CEF01F00EEF01F096
:1002180047EF01F00A0EDC6114EF01F016EF01F070
:1002280047EF01F0DC51D8B41CEF01F01EEF01F0EC
:1002380047EF01F0F729D8A424EF01F026EF01F0E9
:1002480047EF01F0000E8A6E020E036E090E77EC7E
:1002580015F0500E0001DC25D96EDA6A010EDA229B
:10026800DF503EEC17F00001D34BD42B000ED66FB5
:10027800000ED56FDCC0D1F0D26B000EDC6F000E23
:10028800F76F04EF02F00B0EDC19D8A44EEF01F063
:1002980050EF01F004EF02F0D4BF5BEF01F0D4514E
:1002A80008E1D305D8A05BEF01F05DEF01F004EFA2
:1002B80002F0F629D8A463EF01F065EF01F004EF2E
:1002C80002F0000E036E030E77EC15F0820E036E3B
:1002D8000350D8A4080E046E92EC16F0030E036EB9
:1002E8000C0E77EC15F00001F151300F3EEC17F0D1
:1002F800030E036E0E0E77EC15F08F0E036E03508F
:10030800D8A4080E046E92EC16F0C282C2B28FEF27
:1003180001F091EF01F08AEF01F0000E136E000E6C
:10032800146E160E156E430E166EC450016E026AD8
:10033800036A046A010E98EC11F001C00FF002C0C4
:1003480010F003C011F004C012F0A5EC0BF00FC0C0
:1003580028F010C029F011C02AF012C02BF0000EAE
:100368002C6E000E2D6E9A0E2E6E420E2F6EBAEC6B
:100378000DF028C065F129C066F12AC067F12BC0CD
:1003880068F1600E0001996F010E9A6F940E9B6FD1
:1003980065C19CF066C19DF067C19EF068C19FF081
:1003A800CEEC17F0040E036E040E77EC15F0600E19
:1003B800036E010E046E92EC16F0060E0001AE6F8D
:1003C800130EAD6FAD0EE82EFED7AD2FFCD7AE2FB6
:1003D800FAD700D00001F14BF22BF151D15DD25187
:1003E800800AAD6FF251800AAD59D8B0FEEF01F026
:1003F80000EF02F0D2EF00F0000EF66FD2EF00F03F
:10040800F294F00ED76EBE0ED66EBAC0F5FFB9C024
:10041800F8FFB8C0F7FFB7C0F6FFB6C0F4FFB5C025
:10042800F3FFB4C0DAFFB3C0D9FFB2C0E2FFB1C076
:10043800E1FFB0C0EAFFAFC0E9FF5F9211002CEF07
:0204480016F0AC
:1008000000010011001200040018000000000000A8
:1008100000000004001F0000001F00000000000096
:100820000010001100090004000300000000000097
:10083000000C0012000200020002001F001D00193F
:10084000000000000011000E0000001F001900123F
:1008500000060009000800080008001F0017001328
:10086000004E756D65726F206465206D75657374DB
:100870007261733A004269656E76656E69646F21D4
:10088000210054656D70657261747572615B005D05
:10089000203D2000252E326600696E66006E616E76
:1008A0000000000E0001816F56C082F057C083F037
:1008B00058C084F059C085F085BF63EF04F061EF44
:1008C00004F077EF04F0010E816F82C001F083C065
:1008D00002F084C003F085C004F02BEC18F001C0D6
:1008E00082F002C083F003C084F004C085F0000EE3
:1008F0000001876F000E866FC7C071F0C8C072F02C
:100900008151D8B486EF04F088EF04F09CEF04F036
:100910008151D8A48EEF04F090EF04F096EF04F02C
:10092000000E676F2B0E666F9AEF04F0000E676F74
:100930002D0E666F66C081F082C001F083C002F0A8
:1009400084C003F085C004F077EC13F001040210BA
:10095000D8A4ADEF04F0AFEF04F0DEEF04F0000137
:100960008151D8B4B6EF04F0B8EF04F0C1EF04F051
:1009700081C000F17107D8A07207000E876F010EC9
:10098000866F000E8625016E010E8721026E990E7C
:10099000036E0EEC18F00001FD0E7127FF0E72239E
:1009A00055C00FF0000E106E010E116E71C012F0E6
:1009B00072C013F05FEC16F044EF09F082C001F052
:1009C00083C002F084C003F085C004F077EC13F01C
:1009D00001500210D8A4EFEF04F0F1EF04F00FEF94
:1009E00005F000018151D8B4F8EF04F0FAEF04F0FB
:1009F00003EF05F081C000F17107D8A07207000E67
:100A0000876F010E866F000E8625016E010E87210D
:100A1000026E9D0E036E0EEC18F0CBEF04F0000E8C
:100A20000001886F000E896F800E8A6F3F0E8B6FFA
:100A3000000E706F000E6F6F82C001F083C002F075
:100A400084C003F085C004F0000E056E000E066E33
:100A5000000E076E000E086ECFEC14F0D8B033EF26
:100A600005F035EF05F014EF06F042EF05F073C026
:100A700088F074C089F075C08AF076C08BF00001F0
:100A80006F4B702B88C00FF089C010F08AC011F036
:100A90008BC012F0000E136E000E146E200E156E39
:100AA000410E166EA5EC0BF00FC073F010C074F081
:100AB00011C075F012C076F000017351825D016EB5
:100AC00074518359026E75518459036E765185595C
:100AD000046EC1EC16F004BE79EF05F0045003106B
:100AE000021009E1020E015CD8A079EF05F07BEF5E
:100AF00005F037EF05F073C028F074C029F075C019
:100B00002AF076C02BF082C02CF083C02DF084C078
:100B10002EF085C02FF0F5EC12F0D8A092EF05F082
:100B200094EF05F037EF05F000018851825D016E0A
:100B300089518359026E8A518459036E8B518559AC
:100B4000046EC1EC16F004BEB3EF05F004500310C0
:100B5000021007E1020E015CD8B0B1EF05F0B3EF6F
:100B600005F0FBEF05F088C082F089C083F08AC0F1
:100B700084F08BC085F014EF06F088C028F089C09F
:100B800029F08AC02AF08BC02BF0000E2C6E000ECC
:100B90002D6E200E2E6E410E2F6EBAEC0DF028C079
:100BA00088F029C089F02AC08AF02BC08BF00001A0
:100BB0006F07D8A070078851825D016E89518359F3
:100BC000026E8A518459036E8B518559046EC1ECB3
:100BD00016F004BEF9EF05F004500310021007E10F
:100BE000020E015CD8B0F7EF05F0F9EF05F0FBEF6E
:100BF00005F0B3EF05F082C028F083C029F084C06F
:100C00002AF085C02BF088C02CF089C02DF08AC056
:100C10002EF08BC02FF0F5EC12F0D8A012EF06F0FA
:100C200014EF06F0BDEF05F05AC069F069C06AF034
:100C30000001CABF1EEF06F020EF06F026EF06F017
:100C4000C9C062F0CAC063F02AEF06F0000E636FFD
:100C5000060E626F62C06DF063C06EF06D4B6E2B5E
:100C6000660E6A19D8A437EF06F039EF06F059EF8F
:100C700006F070BF40EF06F03EEF06F04CEF06F0D6
:100C8000000E886F000E896F800E8A6F3F0E8B6F8B
:100C9000000E706F000E6F6F670E6919D8B453EFB6
:100CA00006F055EF06F059EF06F06F516D277051C1
:100CB0006E23000E786F000E776F82C079F083C0CC
:100CC0007AF084C07BF085C07CF088C073F089C066
:100CD00074F08AC075F08BC076F0EAEF06F079C048
:100CE00028F07AC029F07BC02AF07CC02BF088C0A5
:100CF0002CF089C02DF08AC02EF08BC02FF0BAECFA
:100D00000DF028C041F029C042F02AC043F02BC0AA
:100D100044F087EC0FF041C07DF042C07EF043C04C
:100D20007FF044C080F07DC001F07EC002F07FC043
:100D300003F080C004F072EC12F001C06BF002C04E
:100D40006CF079C028F07AC029F07BC02AF07CC012
:100D50002BF07DC013F07EC014F07FC015F080C072
:100D600016F088C00FF089C010F08AC011F08BC057
:100D700012F0A5EC0BF00FC02CF010C02DF011C03C
:100D80002EF012C02FF08AEC17F028C079F029C09D
:100D90007AF02AC07BF02BC07CF088C028F089C094
:100DA00029F08AC02AF08BC02BF0000E2C6E000EAA
:100DB0002D6E200E2E6E410E2F6EBAEC0DF028C057
:100DC00088F029C089F02AC08AF02BC08BF000017E
:100DD000774B782B6D51775D7851800A5B6E6E5141
:100DE000800A5B58D8A0F7EF06F0F9EF06F06FEF36
:100DF00006F088C00FF089C010F08AC011F08BC0D7
:100E000012F0000E136E000E146EA00E156E400E42
:100E1000166EA5EC0BF00FC07DF010C07EF011C077
:100E20007FF012C080F079C028F07AC029F07BC032
:100E30002AF07CC02BF07DC02CF07EC02DF07FC04E
:100E40002EF080C02FF0F5EC12F0D8B02AEF07F0AA
:100E50002CEF07F037EF07F0000E00017D6F000E5A
:100E60007E6F000E7F6F000E806F60EF07F079C01D
:100E700001F07AC002F07BC003F07CC004F07DC0BA
:100E800005F07EC006F07FC007F080C008F0CFEC10
:100E900014F0D8A04EEF07F050EF07F060EF07F026
:100EA00000016BB156EF07F058EF07F060EF07F065
:100EB000000E7D6F000E7E6F000E7F6F000E806F44
:100EC00082C001F083C002F084C003F085C004F04A
:100ED0007DC005F07EC006F07FC007F080C008F03E
:100EE00045EC09F001C079F002C07AF003C07BF054
:100EF00004C07CF079C028F07AC029F07BC02AF0C9
:100F00007CC02BF0000E136E000E146E200E156EBA
:100F1000410E166E73C00FF074C010F075C011F062
:100F200076C012F0A5EC0BF00FC02CF010C02DF025
:100F300011C02EF012C02FF0F5EC12F0D8A0A3EFE4
:100F400007F0A5EF07F0CEEF07F000016F4B702B15
:100F500073C00FF074C010F075C011F076C012F0BD
:100F6000000E136E000E146E200E156E410E166EDE
:100F7000A5EC0BF00FC073F010C074F011C075F049
:100F800012C076F0660E00016A19D8A4CAEF07F005
:100F9000CCEF07F0CEEF07F06D4B6E2B73C088F0EF
:100FA00074C089F075C08AF076C08BF06FC060F0B5
:100FB00070C061F0000E0001686F000E656F000EDA
:100FC000646F000E786F000E776FCCEF08F079C079
:100FD00028F07AC029F07BC02AF07CC02BF088C0B2
:100FE0002CF089C02DF08AC02EF08BC02FF0BAEC07
:100FF0000DF028C041F029C042F02AC043F02BC0B8
:1010000044F087EC0FF041C07DF042C07EF043C059
:101010007FF044C080F07DC001F07EC002F07FC050
:1010200003F080C004F072EC12F002BE23EF08F06F
:10103000025007E10A0E015CD8B021EF08F023EF5F
:1010400008F033EF08F07DC001F07EC002F07FC0F1
:1010500003F080C004F072EC12F001C06BF002C02B
:101060006CF038EF08F0000E00016C6F090E6B6F2A
:1010700000016851D8A43FEF08F041EF08F069EF94
:1010800008F061BF48EF08F046EF08F069EF08F09C
:10109000000E8625D96E010E8721DA6E2E0EDF6EC8
:1010A000864B872B7107D8A07207010E686F69EF16
:1010B00008F0000E8625D96E010E8721DA6E300EFB
:1010C000DF6E864B872B7107D8A072076407D8A004
:1010D000650764516511D8A470EF08F072EF08F04D
:1010E00059EF08F0000E8625D96E010E8721DA6EC1
:1010F0006B51300FDF6E864B872B7107D8A07207BC
:1011000079C028F07AC029F07BC02AF07CC02BF08F
:101110007DC013F07EC014F07FC015F080C016F0C3
:1011200088C00FF089C010F08AC011F08BC012F097
:10113000A5EC0BF00FC02CF010C02DF011C02EF05C
:1011400012C02FF08AEC17F028C079F029C07AF08D
:101150002AC07BF02BC07CF088C028F089C029F021
:101160008AC02AF08BC02BF0000E2C6E000E2D6E64
:10117000200E2E6E410E2F6EBAEC0DF028C088F0B6
:1011800029C089F02AC08AF02BC08BF000016007CB
:10119000D8A06107774B782B6D51775D7851800A25
:1011A0005B6E6E51800A5B58D8B0D9EF08F0DBEF68
:1011B00008F0E9EF08F087BFE7EF08F0875109E191
:1011C0004B0E865DD8A0E7EF08F0E9EF08F0E7EFF7
:1011D00007F0000E786F4F0E776F000E7725D96EEF
:1011E000010E7821DA6EDF6A000E5B6E010E5C6E16
:1011F00086515B5E87515C5A77515B24016E785152
:101200005C20026E000E036E010E046E86C005F0B7
:1012100087C006F016EC17F000018651775D866FE7
:1012200087517859876F8151D8A419EF09F01CEFC5
:1012300009F0010E1DEF09F0000E776F786B8151F8
:10124000D8B425EF09F027EF09F032EF09F086074F
:10125000D8A08707000E8625D96E010E8721DA6E89
:1012600081C0DFFF7751715F7851725B55C00FF01D
:10127000000E8625106E010E8721116E71C012F0CE
:1012800072C013F05FEC16F012000450800B0D6E6C
:10129000045004240F6E03AE50EF09F052EF09F032
:1012A00053EF09F00F800F50D8B459EF09F05BEFFE
:1012B00009F070EF09F00F28D8A461EF09F063EF8F
:1012C00009F06BEF09F0000E016E000E026E000EC9
:1012D000036E000E046E038E000E046E78EF09F0AC
:1012E000000E016E000E026E000E036E000E046E04
:1012F0000850800B0E6E0D500E18D8B482EF09F016
:1013000084EF09F085EF09F00D8C085008240E6E6B
:1013100007AE8DEF09F08FEF09F090EF09F00E8026
:101320000E50D8B496EF09F098EF09F0ADEF09F040
:101330000E28D8A49EEF09F0A0EF09F0A8EF09F05D
:10134000000E056E000E066E000E076E000E086E93
:10135000078E000E086EB5EF09F0000E056E000E48
:10136000066E000E076E000E086E0F500E5CD8B0B1
:10137000BCEF09F0BEEF09F0E5EF09F00DACC3EFEB
:1013800009F0C5EF09F0C7EF09F0800E0D1A0FC084
:1013900010F00EC00FF010C00EF001C010F005C02C
:1013A00001F010C005F002C010F006C002F010C03D
:1013B00006F003C010F007C003F010C007F004C02F
:1013C00010F008C004F010C008F0000E106E0F50AE
:1013D0000EC009F00A6A095E000E0A5A0ABEFAEF48
:1013E00009F00A5009E11A0E095CD8A0FAEF09F0D9
:1013F000FCEF09F033EF0AF0015002100310041063
:10140000D8A405EF0AF008EF0AF0010E09EF0AF080
:10141000000E106E000E016E000E026E000E036EC6
:10142000000E046E0EC00FF03CEF0AF010A01BEF90
:101430000AF01DEF0AF023EF0AF0D89010300109EE
:10144000106E25EF0AF0D890103201A02AEF0AF0B2
:101450002CEF0AF02DEF0AF0108E04340432033220
:10146000023201320F2A0E500F5CD8A03AEF0AF078
:101470003CEF0AF016EF0AF00DBC41EF0AF043EF23
:101480000AF083EF0AF00F50D8A449EF0AF04BEFAF
:101490000AF055EF0AF0000E016E000E026E000E0B
:1014A000036E000E046EA4EF0BF0055001260650EB
:1014B0000222075003220850042204A062EF0AF01F
:1014C00064EF0AF010EF0BF010A069EF0AF06BEF79
:1014D0000AF071EF0AF0D89010300109106E73EF26
:1014E0000AF0D890103201A078EF0AF07AEF0AF0F3
:1014F0007BEF0AF0108E04340432033202320132E0
:101500000F2A10EF0BF00550015C065002580750EF
:1015100003580450800A096E0850800A0958D8B050
:1015200094EF0AF096EF0AF0C1EF0AF00150055C63
:10153000096E025006580A6E035007580B6E04508D
:1015400008580C6EFF0E0924016EFF0E0A20026E71
:10155000FF0E0B20036EFF0E0C20046E800E0D1A82
:10156000106C1050D8A4B7EF0AF0B9EF0AF0C9EF29
:101570000AF0010E0126000E022203220422C9EF06
:101580000AF00550015E0650025A0750035A0850EF
:10159000045A0150021003100410D8A4D2EF0AF02C
:1015A000D4EF0AF009EF0BF01050D8A4DAEF0AF0EC
:1015B000DCEF0AF009EF0BF0000E016E000E026E78
:1015C000000E036E000E046EA4EF0BF0D8900136EF
:1015D00002360336043610AEF0EF0AF0F2EF0AF0EE
:1015E000F3EF0AF0018010A0F8EF0AF0FAEF0AF02A
:1015F000FEEF0AF0D880103600EF0BF0D8901036CE
:101600000F50D8B406EF0BF008EF0BF009EF0BF01A
:101610000F0603AE0EEF0BF010EF0BF0E6EF0AF043
:10162000000E0E6E10AE17EF0BF019EF0BF031EF4E
:101630000BF010C009F07F0E0916D8B422EF0BF0A2
:1016400024EF0BF028EF0BF0010E0E6E31EF0BF0D4
:1016500001A02DEF0BF02FEF0BF031EF0BF024EF8B
:101660000BF00E50D8B437EF0BF039EF0BF064EFFE
:101670000BF0010E0126000E02220322042204A018
:1016800044EF0BF046EF0BF064EF0BF001C009F0F4
:1016900002C00AF003C00BF004C00CF00C340C3292
:1016A0000B320A32093209C001F00AC002F00BC045
:1016B00003F00CC004F00F28D8B461EF0BF063EF17
:1016C0000BF064EF0BF00F2A0F28D8B46AEF0BF081
:1016D0006CEF0BF074EF0BF00F50D8A472EF0BF01F
:1016E00074EF0BF086EF0BF0000E016E000E026E31
:1016F000000E036E000E046E0F50D8A482EF0BF0A4
:1017000084EF0BF086EF0BF0000E0D6E0FA08BEF49
:101710000BF08DEF0BF090EF0BF0038E91EF0BF0D1
:10172000039ED8900F30046E0DAE99EF0BF09BEF37
:101730000BF09CEF0BF0048E01C001F002C002F030
:1017400003C003F004C004F012001250800B1B6EA3
:1017500012501224216E11AEB0EF0BF0B2EF0BF06D
:10176000B3EF0BF021802150D8B4B9EF0BF0BBEFF1
:101770000BF0CEEF0BF02128D8A4C1EF0BF0C3EF94
:101780000BF0CBEF0BF0000E0F6E000E106E000E84
:10179000116E000E126E118ED6EF0BF0000E0F6E52
:1017A000000E106E000E116E000E126E1650800BA1
:1017B0001B1A165016241C6E15AEE1EF0BF0E3EF6A
:1017C0000BF0E4EF0BF01C801C50D8B4EAEF0BF0E8
:1017D000ECEF0BF0FFEF0BF01C28D8A4F2EF0BF0AE
:1017E000F4EF0BF0FCEF0BF0000E136E000E146E16
:1017F000000E156E000E166E158E07EF0CF0000E23
:10180000136E000E146E000E156E000E166E1C5038
:10181000D8B40DEF0CF00FEF0CF017EF0CF02150D7
:10182000D8A415EF0CF017EF0CF021EF0CF0000E20
:101830000F6E000E106E000E116E000E126EB9EFDC
:101840000DF015500F02F3CF26F0F4CF27F02650FD
:101850001D6E1E6A1F6A206A2750226E236A246A40
:10186000256A14501002F3CF26F0F4CF27F026504B
:101870001D26000E1E221F22202227502226000E87
:1018800023222422252213501102F3CF26F0F4CF75
:1018900027F026501D26000E1E221F222022275030
:1018A0002226000E2322242225221FC020F01EC043
:1018B0001FF01DC01EF01D6A13501002F3CF26F05A
:1018C000F4CF27F026501D2627501E22000E1F227F
:1018D000000E202214500F02F3CF26F0F4CF27F091
:1018E00026501D2627501E22000E1F22000E2022E9
:1018F0001FC020F01EC01FF01DC01EF01D6A135037
:101900000F02F3CF26F0F4CF27F026501D262750E4
:101910001E22000E1F22000E202215501002F3CFAF
:1019200026F0F4CF27F02650222627502322000E3F
:101930002422000E252214501102F3CF26F0F4CFFA
:1019400027F02650222627502322000E2422000EA4
:10195000252215501102F3CF26F0F4CF27F02650A0
:10196000176E2750186E196A1A6A19C01AF018C033
:1019700019F017C018F0176A1750222618502322A2
:10198000195024221A5025221DC017F01EC018F02D
:101990001FC019F020C01AF0190ED4EF0CF0D89027
:1019A0001A32193218321732E82ECFEF0CF01750D6
:1019B000222618502322195024221A5025221FC0F3
:1019C00020F01EC01FF01DC01EF01D6A1C5021C05B
:1019D00017F0186A1726000E1822820E1724266E9A
:1019E000FF0E1820276E0AEF0DF0D890223623360E
:1019F0002436253620AEFFEF0CF001EF0DF002EF9C
:101A00000DF02280D8901D361E361F362036260651
:101A1000D8A0270624AE0FEF0DF011EF0DF0F5EF73
:101A20000CF0000E1C6E20AE18EF0DF01AEF0DF04A
:101A30003EEF0DF0FF0E1D14176EFF0E1E14186EF4
:101A4000FF0E1F14196E7F0E20141A6E17501810F7
:101A500019101A10D8B42FEF0DF031EF0DF035EF4B
:101A60000DF0010E1C6E3EEF0DF022A03AEF0DF0CE
:101A70003CEF0DF03EEF0DF031EF0DF01C50D8B4FF
:101A800044EF0DF046EF0DF06AEF0DF0010E222647
:101A9000000E23222422252225A051EF0DF053EF22
:101AA0000DF06AEF0DF022C017F023C018F024C02B
:101AB00019F025C01AF01A341A32193218321732B6
:101AC00017C022F018C023F019C024F01AC025F066
:101AD000264A272A27BE75EF0DF0275008E1262851
:101AE000D8A075EF0DF077EF0DF081EF0DF0000E3F
:101AF000226E000E236E800E246E7F0E256EAFEFD9
:101B00000DF027BE8EEF0DF0275006E12604D8B069
:101B10008CEF0DF08EEF0DF09AEF0DF0000E226EAF
:101B2000000E236E000E246E000E256E000E1B6E3E
:101B3000AFEF0DF026C021F0FF0E2216FF0E231688
:101B40007F0E2416000E251621A0A9EF0DF0ABEF95
:101B50000DF0ACEF0DF0248ED8902130256E1B5087
:101B6000251222C00FF023C010F024C011F025C0B0
:101B700012F012002B50800B386E2B502B243F6E2E
:101B80002AAEC5EF0DF0C7EF0DF0C8EF0DF03F80A6
:101B90003F50D8B4CEEF0DF0D0EF0DF0E5EF0DF0E3
:101BA0003F28D8A4D6EF0DF0D8EF0DF0E0EF0DF000
:101BB000000E286E000E296E000E2A6E000E2B6E8F
:101BC0002A8E000E2B6EEDEF0DF0000E286E000E2B
:101BD000296E000E2A6E000E2B6E2F50800B381AC5
:101BE0002F502F24406E2EAEF8EF0DF0FAEF0DF0CF
:101BF000FBEF0DF040804050D8B401EF0EF003EF42
:101C00000EF018EF0EF04028D8A409EF0EF00BEFFD
:101C10000EF013EF0EF0000E2C6E000E2D6E000E67
:101C20002E6E000E2F6E2E8E000E2F6E20EF0EF0F9
:101C3000000E2C6E000E2D6E000E2E6E000E2F6EFE
:101C40002C502D102E102F10D8A429EF0EF02BEFB2
:101C50000EF043EF0EF0000E286E000E296E000EFF
:101C60002A6E000E2B6E800E2A127F0E2B12385019
:101C70002B1228C028F029C029F02AC02AF02BC036
:101C80002BF086EF0FF03F50D8A449EF0EF04BEF4A
:101C90000EF055EF0EF0000E286E000E296E000EAD
:101CA0002A6E000E2B6E86EF0FF040503FC030F0D2
:101CB000316A305E000E315A7F0E3024396E000ECC
:101CC00031203A6E28C034F029C035F02AC036F0F1
:101CD0002BC037F0000E286E000E296E000E2A6E03
:101CE000000E2B6E000E3B6E000E3C6E000E3D6E25
:101CF000000E3E6E000E406EB6EF0EF04050D8B4AF
:101D000084EF0EF086EF0EF09DEF0EF0D890343693
:101D1000353636363736D890283629362A362B3699
:101D20003EAE95EF0EF097EF0EF098EF0EF0288094
:101D3000D8903B363C363D363E362C50345C2D50E8
:101D400035582E5036582F503758D8A0AAEF0EF0DD
:101D5000ACEF0EF0B5EF0EF03E8C2C50345E2D50F3
:101D6000355A2E50365A2F50375A402A190E406491
:101D7000BCEF0EF0BEEF0EF07EEF0EF034503510DB
:101D800036103710D8B4C7EF0EF0C9EF0EF0E1EF00
:101D90000EF03B80E1EF0EF0D890283629362A3637
:101DA0002B363EAED6EF0EF0D8EF0EF0D9EF0EF098
:101DB0002880D8903B363C363D363E363906D8A092
:101DC0003A062AAEE6EF0EF0E8EF0EF0CCEF0EF09A
:101DD000000E406E3EAEEFEF0EF0F1EF0EF015EF9D
:101DE0000FF0FF0E3B14306EFF0E3C14316EFF0EF1
:101DF0003D14326E7F0E3E14336E3050311032106F
:101E00003310D8B406EF0FF008EF0FF00CEF0FF01F
:101E1000010E406E15EF0FF028A011EF0FF013EF39
:101E20000FF015EF0FF008EF0FF04050D8B41BEF94
:101E30000FF01DEF0FF041EF0FF0010E2826000EFE
:101E400029222A222B222BA028EF0FF02AEF0FF0B5
:101E500041EF0FF028C030F029C031F02AC032F035
:101E60002BC033F03334333232323132303230C07F
:101E700028F031C029F032C02AF033C02BF0394AA3
:101E80003A2A3ABE4CEF0FF03A5008E13928D8A070
:101E90004CEF0FF04EEF0FF059EF0FF0000E3A6ECF
:101EA0003968000E286E000E296E000E2A6E000E94
:101EB0002B6E3ABE66EF0FF03A5006E13904D8B007
:101EC00064EF0FF066EF0FF074EF0FF0000E3A6E54
:101ED000000E396E000E286E000E296E000E2A6E5E
:101EE000000E2B6E000E386E39C03FF03FA07BEF26
:101EF0000FF07DEF0FF080EF0FF02A8E81EF0FF0E3
:101F00002A9ED8903F302B6E37EF0EF01200BBC0E8
:101F100051F0BCC052F0BDC053F0BEC054F041C03F
:101F200051F042C052F043C053F044C054F0810E0F
:101F3000456EFF0E466E51C047F052C048F053C088
:101F400049F054C04AF0180EABEF0FF0D8904A3267
:101F5000493248324732E82EA6EF0FF04750452469
:101F60004F6E000E4620506E50BEC0EF0FF0505026
:101F700009E1170E4F5CD8A0C0EF0FF0C2EF0FF0D1
:101F8000CCEF0FF041C041F042C042F043C043F0FB
:101F900044C044F08FEF10F050BED1EF0FF0D3EFFC
:101FA0000FF043EF10F04FC045F0FF0E466EFF0EEE
:101FB000476E7F0E486E000E496E4566E2EF0FF0E9
:101FC000EAEF0FF049344932483247324632452E63
:101FD000DDEF0FF046C04BF047C04CF048C04DF06D
:101FE00049C04EF04B505114456E4C505214466E41
:101FF0004D505314476E4E505414486E4550461081
:1020000047104810D8A407EF10F009EF10F00BEFBD
:1020100010F0C2EF0FF051C045F052C046F053C06F
:1020200047F054C048F0200E1BEF10F0D890483213
:10203000473246324532E82E16EF10F04550461032
:1020400047104810D8B427EF10F029EF10F031EF07
:1020500010F04B5051264C5052224D5053224E50AE
:1020600054224B1C456E4C1C466E4D1C476E4E1C3C
:10207000486E455051164650521647505316485018
:10208000541687EF10F051C045F052C046F053C0CF
:1020900047F054C048F0200E53EF10F0D89048326B
:1020A000473246324532E82E4EEF10F0455046108A
:1020B00047104810D8A45FEF10F061EF10F06BEFFD
:1020C00010F0000E516E000E526E000E536E000E98
:1020D000546E87EF10F0D8905134456E5234466EEE
:1020E0005334476E5434486E4550461047104810DC
:1020F000D8B47DEF10F07FEF10F087EF10F0000EF6
:10210000516E000E526E800E536EBF0E546E51C053
:1021100041F052C042F053C043F054C044F01200AA
:1021200000018D51D96EDA6ADFCFF6FF080EF76E27
:102130000800F550250AD8A4A0EF10F0A2EF10F087
:1021400086EF11F08D51D96EDA6ADF2A000EC86F62
:10215000000EC76FC7C0D9F0C969CA698D51D96E61
:10216000DA6ADFCFF6FF080EF76E0800F5502E0A88
:10217000D8A4BDEF10F0BFEF10F0CDEF10F08D51EF
:10218000D96EDA6ADF2A8DC007F08EC008F024EC21
:1021900015F007C0C9F008C0CAF000018D51D96E12
:1021A000DA6ADF50946F94C0F6FF080EF76E0800ED
:1021B000F5CF93F0E7EF10F0942B00EF11F06C0ED9
:1021C000936F00EF11F0000E936F00EF11F0935139
:1021D0005D6E5E6A5E50000AD8B4F1EF10F0E3EF76
:1021E00010F05D504C0AD8B4DCEF10F02A0AD8B4D5
:1021F000DFEF10F00A0AD8B4DCEF10F0E3EF10F0D4
:1022000094C0F6FF080EF76E0800F550660AD8A4D1
:102210000CEF11F00EEF11F07FEF11F038EF11F02D
:102220008E51D96EDA6ADFCF5DF0040EDF265D5085
:10223000D96EDA6ADECF8FF0DECF90F0DECF91F08C
:10224000DECF92F04DEF11F08E51D96EDA6ADFCF0A
:102250005DF0040EDF265D50D96EDA6ADECF8FF0B6
:10226000DECF90F0DECF91F0DECF92F04DEF11F0A7
:1022700093515D6E5E6A5E50000AD8B442EF11F071
:102280004DEF11F05D504C0AD8B424EF11F0200A44
:10229000D8B410EF11F04DEF11F08D51D96EDA6A0C
:1022A0009429DF6E69EF11F08CC055F08FC056F0A5
:1022B00090C057F091C058F092C059F094C0F6FF0A
:1022C000080EF76E0800F5CF5AF051EC04F097EFC6
:1022D00011F094C0F6FF080EF76E0800F5505D6E21
:1022E0005E6A5E50000AD8B478EF11F07FEF11F00B
:1022F0005D50660AD8B454EF11F07FEF11F0000181
:102300008D51D96EDA6ADF2A97EF11F08D51D96EAF
:10231000DA6ADFCFF6FF080EF76E0800F550016E9F
:10232000026A8CC003F072EC14F07FEF11F012001F
:10233000096E0950D8B49FEF11F0A1EF11F0C3EF6F
:1023400011F004BEA8EF11F0A6EF11F0C3EF11F0E9
:1023500001C005F002C006F003C007F004C008F099
:10236000051E061E071E081E052A000E062207224D
:10237000082205C00BF006C00CF007C00DF008C025
:102380000EF0CBEF11F001C00BF002C00CF003C057
:102390000DF004C00EF00150021003100410D8A478
:1023A000D4EF11F0D6EF11F0E0EF11F0000E016E56
:1023B000000E026E000E036E000E046E71EF12F03E
:1023C000960E0A6EEAEF11F00A2AD8900E320D32FC
:1023D0000C320B32000E0B14056E000E0C14066E40
:1023E000000E0D14076EFE0E0E14086E055006103A
:1023F00007100810D8A4FFEF11F001EF12F0E4EF7E
:1024000011F00FEF12F00A2A010E0B26000E0C221B
:102410000D220E22D8900E320D320C320B32000EED
:102420000B14056E000E0C14066E000E0D14076ED4
:10243000FF0E0E14086E0550061007100810D8A4E1
:1024400024EF12F026EF12F003EF12F02EEF12F04D
:102450000A06D8900B360C360D360E360DBE33EF0D
:1024600012F035EF12F03DEF12F0020E0A603BEF72
:1024700012F03DEF12F028EF12F00AB042EF12F026
:1024800044EF12F045EF12F00D9ED8900A320AC0C8
:1024900005F0066A076A086A05C008F0076A066A56
:1024A000056A05500B1206500C1207500D12085009
:1024B0000E120950D8B45FEF12F061EF12F069EF1D
:1024C00012F004BE68EF12F066EF12F069EF12F03E
:1024D0000E8E0BC001F00CC002F00DC003F00EC058
:1024E00004F01200033404340A6E0A50D8A47BEFBF
:1024F00012F07DEF12F087EF12F0000E016E000E69
:10250000026E000E036E000E046EF4EF12F001C0B6
:1025100005F002C006F003C007F004C008F0200E6A
:1025200097EF12F0D8900832073206320532E82EC3
:1025300092EF12F00550096E038EFF0E0116FF0E8A
:102540000216FF0E0316000E0416960E0A5E0ABE51
:10255000AEEF12F0ACEF12F0C4EF12F00A50800AA6
:10256000970FD8B0B6EF12F0B8EF12F0BAEF12F042
:102570007DEF12F0D89004320332023201320A3E6B
:10258000BAEF12F0DCEF12F01F0E0A64CAEF12F07D
:10259000CCEF12F0D4EF12F07DEF12F0D8900136AC
:1025A0000236033604360A060A50D8A4DAEF12F0CF
:1025B000DCEF12F0CEEF12F00950D8B4E2EF12F0D7
:1025C000E4EF12F0ECEF12F0041E031E021E016C89
:1025D000000E02220322042201C001F002C002F018
:1025E00003C003F004C004F01200000E2814306E83
:1025F000000E2914316E800E2A14326E7F0E2B14B9
:10260000336E3050311032103310D8A40AEF13F06B
:102610000CEF13F014EF13F0000E286E000E296E6D
:10262000000E2A6E000E2B6E000E2C14306E000E63
:102630002D14316E800E2E14326E7F0E2F14336ED9
:102640003050311032103310D8A429EF13F02BEF93
:1026500013F033EF13F0000E2C6E000E2D6E000EF3
:102660002E6E000E2F6E2BAE38EF13F03AEF13F0F4
:1026700043EF13F0286C291ED8B0292A2A1ED8B09F
:102680002A2A800E2B562FAE48EF13F04AEF13F094
:1026900053EF13F02C6C2D1ED8B02D2A2E1ED8B05F
:1026A0002E2A800E2F56000E281A000E291A000E10
:1026B0002A1A800E2B1A000E2C1A000E2D1A000E4C
:1026C0002E1A800E2F1A2C50285C2D5029582E506F
:1026D0002A582F502B58D8B070EF13F072EF13F028
:1026E00075EF13F0D89076EF13F0D8801200BFC0CA
:1026F0000BF0C0C00CF0C1C00DF0C2C00EF001C0A4
:102700000BF002C00CF003C00DF004C00EF00BC0C3
:1027100005F00CC006F00DC007F00EC008F0180E52
:1027200097EF13F0D8900832073206320532E82EC0
:1027300092EF13F00550096E0A6A09500A10D8A4E6
:10274000A4EF13F0A6EF13F0C6EF13F0D8900B34FC
:10275000056E0C34066E0D34076E0E34086E05508F
:10276000061007100810D8A4B8EF13F0BAEF13F052
:10277000C0EF13F0000E026E020E016EF5EF13F0C3
:10278000000E026E030E016EF5EF13F009280A1019
:10279000D8A4CDEF13F0CFEF13F0F1EF13F00BC08F
:1027A00005F00CC006F00DC007F00EC008F0090ED1
:1027B000D8900536063607360836E82ED8EF13F0DF
:1027C0000550061007100810D8B4E9EF13F0ECEF2D
:1027D00013F0010EEDEF13F0000E016E026AF5EF3B
:1027E00013F0000E026E040E016E1200520ED36E34
:1027F000000ED26E000E926EF00E936E000E956E6D
:10280000000E0F015B6F000E5C6F000E5E6FF19E9D
:1028100096805F81140EC26E000EC16E140EC06EE3
:10282000C280D58ED59CD59AD598D596070ED5124F
:10283000F28EF28ABCEC15F0410E01016C6FEE0EC7
:10284000E82EFED76C2FFCD70000F00ED76EBE0E20
:10285000D66E0001F551F915896EF505D8B433EF40
:1028600014F035EF14F03EEF14F0CF05D011D8A4DA
:102870003CEF14F03EEF14F045EF14F0F551F52560
:10288000F56F000ED06F010ECF6FF551F915896EFF
:10289000200EF519D8B44FEF14F051EF14F05AEFA1
:1028A00014F0CF51D011D8A458EF14F05AEF14F00F
:1028B00061EF14F0D890F531F56F000ED06F000E77
:1028C000CF6F020E01016D6F040E6C6FBA0EE82E11
:1028D000FED76C2FFCD76D2FFAD7000029EF14F02C
:1028E00023EF02F00350D8B478EF14F07AEF14F02D
:1028F00082EF14F00350D8A480EF14F082EF14F0AC
:1029000087EF14F001507DEC18F0CEEF14F0035077
:10291000D96EDA6A0A0ED926DE50DE10D8B493EFEB
:1029200014F095EF14F0AEEF14F00350D96EDA6A9C
:102930000A0ED9260350E16EE26A030EE126DE504C
:10294000E65CE650800A086EDE50800A0858D8B06F
:10295000ACEF14F0AEEF14F0CEEF14F00350D96EDC
:10296000DA6A030ED926DECF04F0DDCF05F003507E
:10297000D96EDA6ADECF06F0DDCF07F00450062408
:10298000D96E05500720DA6E01C0DFFF0350D96E03
:10299000DA6A030ED926DE2A000EDD221200000EAE
:1029A0000114096E000E02140A6E800E03140B6EE1
:1029B0007F0E04140C6E09500A100B100C10D8A4D2
:1029C000E4EF14F0E6EF14F0EEEF14F0000E016EF9
:1029D000000E026E000E036E000E046E000E051453
:1029E000096E000E06140A6E800E07140B6E7F0E21
:1029F00008140C6E09500A100B100C10D8A403EF29
:102A000015F005EF15F00DEF15F0000E056E000E38
:102A1000066E000E076E000E086E055001180FE1DD
:102A2000065002180CE10750031809E10850041879
:102A3000D8B41DEF15F01FEF15F022EF15F0D89068
:102A400023EF15F0D8801200000E0B6E000E0A6EF8
:102A50000750D96EDA6ADFCFF6FF080EF76E08006E
:102A6000F5502A0AD8A437EF15F039EF15F05FEFCB
:102A700015F00750D96EDA6ADF2A0850D96EDA6A83
:102A8000020EDF26DF5CD96EDA6ADECF0AF0DECF17
:102A90000BF072EF15F00AC001F00BC002F0000E4F
:102AA000046E0A0E036E47EC18F0095001240A6EFA
:102AB000000E02200B6E0750D96EDA6ADF2A07502B
:102AC000D96EDA6ADFCFF6FF080EF76E0800F55010
:102AD000D00F096E090E096470EF15F072EF15F052
:102AE0004BEF15F00AC007F00BC008F01200066E9D
:102AF0009EEF15F003500F0B8009076E075064EC32
:102B000017F0BBEF15F003500F0BC009076E07500D
:102B100064EC17F0BBEF15F003500F0B9409076E30
:102B2000075064EC17F0BBEF15F003500F0BD409FE
:102B3000076E075064EC17F0BBEF15F00650046EFB
:102B4000056A0550000AD8B4A8EF15F0BBEF15F0E0
:102B50000450010AD8B47AEF15F0030AD8B483EF11
:102B600015F0010AD8B48CEF15F0070AD8B495EF28
:102B700015F0BBEF15F01200140E01016B6F790E0A
:102B8000E82EFED76B2FFCD700D0300E8C6E8C84D5
:102B900000008C94070E01016B6F7D0EE82EFED7AE
:102BA0006B2FFCD7300E8C6E8C8400008C94C80E7A
:102BB00000D0E82EFDD7300E8C6E8C8400008C94F3
:102BC000C80E00D0E82EFDD7020EECEC16F0280E51
:102BD000ECEC16F0010EECEC16F00C0EECEC16F032
:102BE000060EECEC16F08C861200140E036E7A0EB4
:102BF000E82EFED7032EFCD7300E8C6E8C8400009E
:102C00008C94070E036E7D0EE82EFED7032EFCD7A4
:102C10000000300E8C6E8C8400008C94C80E00D0A6
:102C2000E82EFDD7300E8C6E8C8400008C94C80E7C
:102C300000D0E82EFDD7020E64EC17F0280E64ECED
:102C400017F0010E64EC17F00C0E64EC17F0060E92
:102C500064EC17F08C861200EA0EF66E300EF76EFA
:102C6000000EF86E01EE50F010EE10F00900F5CFF6
:102C7000EEFFE550E150FAE1B40EF66E300EF76E5D
:102C8000000EF86E00EEDDF010EE1DF00900F5CF3D
:102C9000EEFFE550E150FAE101EE00F0500EEE6A71
:102CA000E806FDE100EEBBF0220EEE6AE806FDE16B
:102CB0005F905F92000EF86E0001F6EF13F013BE06
:102CC00066EF16F064EF16F06AEF16F0000E136E62
:102CD000000E126E000E166E000E156E7AEF16F0D4
:102CE000000E026E200E016E0FC003F072EC14F0A5
:102CF000154A162A1250155C1650800A146E13508D
:102D0000800A1458D8A087EF16F089EF16F070EFFC
:102D100016F010C009F011C00AF00FC00BF0EEEC75
:102D200017F01200A8EF16F003C0F6FF04C0F7FF7B
:102D3000F86A070EF76403D00800F55005D0F6CF07
:102D4000E9FFF7CFEAFFEF503EEC17F0034A042A01
:102D500003C0F6FF04C0F7FFF86A070EF76403D05C
:102D60000800F55005D0F6CFE9FFF7CFEAFFEF50A6
:102D70000009D8A4BEEF16F0C0EF16F094EF16F0DD
:102D8000120004BEC6EF16F0C8EF16F0D2EF16F030
:102D900001C001F002C002F003C003F004C004F05F
:102DA000EBEF16F001C005F002C006F003C007F01B
:102DB00004C008F0051E061E071E081E052A000E88
:102DC00006220722082205C001F006C002F007C053
:102DD00003F008C004F0120001016A6F6AC169F1D2
:102DE000F00E010169178C500F0B69118C6E8C90DD
:102DF0008C8400008C94C80E00D0E82EFDD76AC1E8
:102E000069F10101693BF00E69178C500F0B6911D4
:102E10008C6E8C8400008C94040E0101696FE40EAA
:102E2000E82EFED7692FFCD70000120003C00AF07D
:102E300004C00BF001C008F002C009F030EF17F039
:102E40000AC0D9FF0BC0DAFFDF50076E0A4A0B2A0F
:102E500008C0D9FF09C0DAFF07C0DFFF084A092A06
:102E60000506D8A00606052806E10628D8A43BEFEB
:102E700017F03DEF17F020EF17F01200026E02C0BE
:102E800001F0F00E01168C500F0B01108C6E8C802F
:102E90008C8400008C94C80E00D0E82EFDD702C0B0
:102EA00001F0013AF00E01168C500F0B01108C6EE0
:102EB0008C8400008C94040E016EE40EE82EFED784
:102EC000012EFCD700D01200026E02C001F0F00EFD
:102ED00001168C500F0B01108C6E8C908C840000AE
:102EE0008C94C80E00D0E82EFDD702C001F0013A44
:102EF000F00E01168C500F0B01108C6E8C840000AC
:102F00008C94040E016EE40EE82EFED7012EFCD741
:102F100000D01200000E2C1A000E2D1A000E2E1AD0
:102F2000800E2F1A28C001F029C002F02AC003F039
:102F30002BC004F02CC005F02DC006F02EC007F009
:102F40002FC008F045EC09F001C028F002C029F0BC
:102F500003C02AF004C02BF0120096C098F0BAEF1C
:102F600017F095C08CF0980E00018D6F97C08EF011
:102F700090EC10F098C0F6FF080EF76E0800F550C0
:102F80000009D8A4C6EF17F0C8EF17F0B1EF17F09B
:102F9000000E0001966F000E956F12009C0E00014E
:102FA000A06F99C0A1F09AC0A2F0000EA56F000E0C
:102FB000A46F000EAC6F000EAB6FA10E956F9BC09F
:102FC00096F0A00E976FADEC17F00001A451992573
:102FD000D96EA5519A21DA6EDF6A1200000E0E6ECC
:102FE000000E0D6EFDEF17F00CC001F0026A0BC071
:102FF00003F072EC14F00D4A0E2A0D500924D96E1C
:103000000E500A20DA6EDF500C6E0C50D8A40BEF75
:1030100018F00DEF18F0F4EF17F0120001C005F0F2
:1030200002C006F0032A0304046E04C0F6FF080E73
:10303000F76E05C0D9FF06C0DAFF054A062A080068
:10304000F5CFDFFFDF50D8A428EF18F02AEF18F0F3
:1030500012EF18F012000150021003100410D8B43F
:1030600034EF18F036EF18F03EEF18F0000E011AAA
:10307000000E021A000E031A800E041A01C001F09D
:1030800002C002F003C003F004C004F012000150BB
:103090000302F3CF05F0F4CF06F001500402F35021
:1030A000062602500302F350062605C001F006C0B2
:1030B00002F012000102030A0405060B0708090CBE
:1030C0000F000E0DFEFDFBF70100140001FFFFFFD6
:0130D000FF00
:1030D200010E64EC17F0040E036EE40EE82EFED728
:1030E200032EFCD700D0120030313233343536375C
:0A30F20038394142434445461200BC
:020000040030CA
:0E0000000009583CFFD181FF0FC00FE00F40F8
:00000001FF
